{
  "contractName": "Todo",
  "abi": [
    {
      "inputs": [
        {
          "internalType": "string",
          "name": "_title",
          "type": "string"
        }
      ],
      "name": "newItem",
      "outputs": [],
      "stateMutability": "nonpayable",
      "type": "function"
    },
    {
      "inputs": [],
      "name": "getItems",
      "outputs": [
        {
          "components": [
            {
              "internalType": "string",
              "name": "title",
              "type": "string"
            },
            {
              "internalType": "bool",
              "name": "done",
              "type": "bool"
            }
          ],
          "internalType": "struct Todo.Item[]",
          "name": "",
          "type": "tuple[]"
        }
      ],
      "stateMutability": "view",
      "type": "function",
      "constant": true
    }
  ],
  "bytecode": "0x608060405234801561001057600080fd5b5061071f806100206000396000f3fe608060405234801561001057600080fd5b50600436106100365760003560e01c8063410d59cc1461003b578063659b3c4314610059575b600080fd5b610043610075565b60405161005091906104e8565b60405180910390f35b610073600480360381019061006e9190610391565b6101bd565b005b60606000803373ffffffffffffffffffffffffffffffffffffffff1673ffffffffffffffffffffffffffffffffffffffff168152602001908152602001600020805480602002602001604051908101604052809291908181526020016000905b828210156101b4578382906000526020600020906002020160405180604001604052908160008201805461010890610603565b80601f016020809104026020016040519081016040528092919081815260200182805461013490610603565b80156101815780601f1061015657610100808354040283529160200191610181565b820191906000526020600020905b81548152906001019060200180831161016457829003601f168201915b505050505081526020016001820160009054906101000a900460ff161515151581525050815260200190600101906100d5565b50505050905090565b6000803373ffffffffffffffffffffffffffffffffffffffff1673ffffffffffffffffffffffffffffffffffffffff1681526020019081526020016000206040518060400160405280838152602001600015158152509080600181540180825580915050600190039060005260206000209060020201600090919091909150600082015181600001908051906020019061025892919061027e565b5060208201518160010160006101000a81548160ff021916908315150217905550505050565b82805461028a90610603565b90600052602060002090601f0160209004810192826102ac57600085556102f3565b82601f106102c557805160ff19168380011785556102f3565b828001600101855582156102f3579182015b828111156102f25782518255916020019190600101906102d7565b5b5090506103009190610304565b5090565b5b8082111561031d576000816000905550600101610305565b5090565b600061033461032f8461052f565b61050a565b9050828152602081018484840111156103505761034f6106c9565b5b61035b8482856105c1565b509392505050565b600082601f830112610378576103776106c4565b5b8135610388848260208601610321565b91505092915050565b6000602082840312156103a7576103a66106d3565b5b600082013567ffffffffffffffff8111156103c5576103c46106ce565b5b6103d184828501610363565b91505092915050565b60006103e683836104ab565b905092915050565b60006103f982610570565b6104038185610593565b93508360208202850161041585610560565b8060005b85811015610451578484038952815161043285826103da565b945061043d83610586565b925060208a01995050600181019050610419565b50829750879550505050505092915050565b61046c816105b5565b82525050565b600061047d8261057b565b61048781856105a4565b93506104978185602086016105d0565b6104a0816106d8565b840191505092915050565b600060408301600083015184820360008601526104c88282610472565b91505060208301516104dd6020860182610463565b508091505092915050565b6000602082019050818103600083015261050281846103ee565b905092915050565b6000610514610525565b90506105208282610635565b919050565b6000604051905090565b600067ffffffffffffffff82111561054a57610549610695565b5b610553826106d8565b9050602081019050919050565b6000819050602082019050919050565b600081519050919050565b600081519050919050565b6000602082019050919050565b600082825260208201905092915050565b600082825260208201905092915050565b60008115159050919050565b82818337600083830152505050565b60005b838110156105ee5780820151818401526020810190506105d3565b838111156105fd576000848401525b50505050565b6000600282049050600182168061061b57607f821691505b6020821081141561062f5761062e610666565b5b50919050565b61063e826106d8565b810181811067ffffffffffffffff8211171561065d5761065c610695565b5b80604052505050565b7f4e487b7100000000000000000000000000000000000000000000000000000000600052602260045260246000fd5b7f4e487b7100000000000000000000000000000000000000000000000000000000600052604160045260246000fd5b600080fd5b600080fd5b600080fd5b600080fd5b6000601f19601f830116905091905056fea264697066735822122027572ea8991fa5e690d5ee1d6441e7be6aeff63eee0be7b70947f4bd1327f96564736f6c63430008070033",
  "immutableReferences": {},
  "source": "// SPDX-License-Identifier: Sam\npragma solidity^0.8.7;\n\ncontract Todo {\n    \n    struct Item {\n        string title;\n        bool done;\n    }\n\n    mapping (address => Item[]) todos;\n\n    function newItem (string memory _title) public {\n        todos[msg.sender].push(Item({title: _title, done: false}));\n    }\n\n    function getItems () public view returns (Item[] memory){\n        return todos[msg.sender];\n    }\n\n}",
  "sourcePath": "/Users/samuelschmitt/Documents/Easy Access/Coding Projects/react-eth-wallet/src/api/contracts/contracts/Todo.sol",
  "compiler": {
    "name": "solc",
    "version": "0.8.7+commit.e28d00a7.Emscripten.clang"
  },
  "schemaVersion": "3.4.3",
  "updatedAt": "2021-12-12T18:14:14.266Z",
  "networkType": "ethereum",
  "devdoc": {
    "kind": "dev",
    "methods": {},
    "version": 1
  },
  "userdoc": {
    "kind": "user",
    "methods": {},
    "version": 1
  }
}